{
  "contractName": "Voting",
  "abi": [
    {
      "inputs": [
        {
          "internalType": "bytes32[]",
          "name": "_candidatesName",
          "type": "bytes32[]"
        }
      ],
      "stateMutability": "nonpayable",
      "type": "constructor"
    },
    {
      "inputs": [
        {
          "internalType": "bytes32",
          "name": "_candidate",
          "type": "bytes32"
        }
      ],
      "name": "vote",
      "outputs": [],
      "stateMutability": "nonpayable",
      "type": "function"
    },
    {
      "inputs": [
        {
          "internalType": "bytes32",
          "name": "_candidate",
          "type": "bytes32"
        }
      ],
      "name": "candidateIsValid",
      "outputs": [
        {
          "internalType": "bool",
          "name": "",
          "type": "bool"
        }
      ],
      "stateMutability": "view",
      "type": "function",
      "constant": true
    },
    {
      "inputs": [
        {
          "internalType": "bytes32",
          "name": "_candidate",
          "type": "bytes32"
        }
      ],
      "name": "getReceivedVotes",
      "outputs": [
        {
          "internalType": "uint8",
          "name": "",
          "type": "uint8"
        }
      ],
      "stateMutability": "view",
      "type": "function",
      "constant": true
    }
  ],
  "bytecode": "0x608060405234801561001057600080fd5b506040516106363803806106368339818101604052810190610032919061014e565b60005b8151811015610094576001806000848481518110610056576100556102a5565b5b6020026020010151815260200190815260200160002060006101000a81548160ff0219169083151502179055508061008d9061022d565b9050610035565b505061033f565b60006100ae6100a9846101bc565b610197565b905080838252602082019050828560208602820111156100d1576100d0610308565b5b60005b8581101561010157816100e78882610139565b8452602084019350602083019250506001810190506100d4565b5050509392505050565b600082601f8301126101205761011f610303565b5b815161013084826020860161009b565b91505092915050565b60008151905061014881610328565b92915050565b60006020828403121561016457610163610312565b5b600082015167ffffffffffffffff8111156101825761018161030d565b5b61018e8482850161010b565b91505092915050565b60006101a16101b2565b90506101ad82826101fc565b919050565b6000604051905090565b600067ffffffffffffffff8211156101d7576101d66102d4565b5b602082029050602081019050919050565b6000819050919050565b6000819050919050565b61020582610317565b810181811067ffffffffffffffff82111715610224576102236102d4565b5b80604052505050565b6000610238826101f2565b91507fffffffffffffffffffffffffffffffffffffffffffffffffffffffffffffffff82141561026b5761026a610276565b5b600182019050919050565b7f4e487b7100000000000000000000000000000000000000000000000000000000600052601160045260246000fd5b7f4e487b7100000000000000000000000000000000000000000000000000000000600052603260045260246000fd5b7f4e487b7100000000000000000000000000000000000000000000000000000000600052604160045260246000fd5b600080fd5b600080fd5b600080fd5b600080fd5b6000601f19601f8301169050919050565b610331816101e8565b811461033c57600080fd5b50565b6102e88061034e6000396000f3fe608060405234801561001057600080fd5b50600436106100415760003560e01c8063a69beaba14610046578063e1b971d014610062578063f45301a314610092575b600080fd5b610060600480360381019061005b9190610199565b6100c2565b005b61007c60048036038101906100779190610199565b61011f565b60405161008991906101e4565b60405180910390f35b6100ac60048036038101906100a79190610199565b610149565b6040516100b991906101ff565b60405180910390f35b6100cb8161011f565b6100d457600080fd5b600080828152602001908152602001600020600081819054906101000a900460ff16809291906101039061023d565b91906101000a81548160ff021916908360ff1602179055505050565b60006001600083815260200190815260200160002060009054906101000a900460ff169050919050565b60006101548261011f565b61015d57600080fd5b60008083815260200190815260200160002060009054906101000a900460ff169050919050565b6000813590506101938161029b565b92915050565b6000602082840312156101af576101ae610296565b5b60006101bd84828501610184565b91505092915050565b6101cf8161021a565b82525050565b6101de81610230565b82525050565b60006020820190506101f960008301846101c6565b92915050565b600060208201905061021460008301846101d5565b92915050565b60008115159050919050565b6000819050919050565b600060ff82169050919050565b600061024882610230565b915060ff82141561025c5761025b610267565b5b600182019050919050565b7f4e487b7100000000000000000000000000000000000000000000000000000000600052601160045260246000fd5b600080fd5b6102a481610226565b81146102af57600080fd5b5056fea2646970667358221220dbea395c03f0d7116296a88daec62d3a49e964e4b4d496ca974d8f021bfc878e64736f6c63430008070033",
  "immutableReferences": {},
  "source": "// SPDX-License-Identifier: MIT\r\npragma solidity ^0.8.7;\r\n\r\ncontract Voting {\r\n    mapping (bytes32 => uint8) private receivedVotes; // mapping that links number of votes with the candidate\r\n    mapping (bytes32 => bool) private candidates; // mapping to know if a candidate is valid\r\n\r\n    constructor(bytes32[] memory _candidatesName) {\r\n        for(uint i = 0; i < _candidatesName.length; ++i) {\r\n            candidates[_candidatesName[i]] = true;\r\n        }\r\n    }\r\n\r\n    // Vote for a candidate\r\n    function vote(bytes32 _candidate) public {\r\n        require(candidateIsValid(_candidate));\r\n        receivedVotes[_candidate]++;\r\n    }\r\n\r\n    // Check that a candidate exists\r\n    function candidateIsValid(bytes32 _candidate) public view returns (bool) {\r\n        return candidates[_candidate];\r\n    }\r\n\r\n    // Get the number of votes of a candidate\r\n    function getReceivedVotes(bytes32 _candidate) public view returns (uint8) {\r\n        require(candidateIsValid(_candidate));\r\n        return receivedVotes[_candidate];\r\n    }\r\n}",
  "sourcePath": "C:\\Users\\lunav\\OneDrive\\Escritorio\\Return\\INTI\\blockchain-app\\sc\\contracts\\Voting.sol",
  "compiler": {
    "name": "solc",
    "version": "0.8.7+commit.e28d00a7.Emscripten.clang"
  },
  "schemaVersion": "3.4.7",
  "updatedAt": "2022-04-27T01:33:02.038Z",
  "networkType": "ethereum",
  "devdoc": {
    "kind": "dev",
    "methods": {},
    "version": 1
  },
  "userdoc": {
    "kind": "user",
    "methods": {},
    "version": 1
  }
}